{
  "contractName": "Wallet",
  "abi": [
    {
      "inputs": [
        {
          "internalType": "address[]",
          "name": "_approvers",
          "type": "address[]"
        },
        {
          "internalType": "uint256",
          "name": "_quorum",
          "type": "uint256"
        }
      ],
      "stateMutability": "nonpayable",
      "type": "constructor"
    },
    {
      "inputs": [
        {
          "internalType": "uint256",
          "name": "",
          "type": "uint256"
        }
      ],
      "name": "approvers",
      "outputs": [
        {
          "internalType": "address",
          "name": "",
          "type": "address"
        }
      ],
      "stateMutability": "view",
      "type": "function"
    },
    {
      "inputs": [],
      "name": "quorum",
      "outputs": [
        {
          "internalType": "uint256",
          "name": "",
          "type": "uint256"
        }
      ],
      "stateMutability": "view",
      "type": "function"
    },
    {
      "inputs": [
        {
          "internalType": "address",
          "name": "",
          "type": "address"
        },
        {
          "internalType": "uint256",
          "name": "",
          "type": "uint256"
        }
      ],
      "name": "transferApprovals",
      "outputs": [
        {
          "internalType": "bool",
          "name": "",
          "type": "bool"
        }
      ],
      "stateMutability": "view",
      "type": "function"
    },
    {
      "inputs": [
        {
          "internalType": "uint256",
          "name": "",
          "type": "uint256"
        }
      ],
      "name": "transfers",
      "outputs": [
        {
          "internalType": "uint256",
          "name": "id",
          "type": "uint256"
        },
        {
          "internalType": "uint256",
          "name": "amount",
          "type": "uint256"
        },
        {
          "internalType": "address payable",
          "name": "to",
          "type": "address"
        },
        {
          "internalType": "uint256",
          "name": "approvals",
          "type": "uint256"
        },
        {
          "internalType": "bool",
          "name": "transferStatus",
          "type": "bool"
        }
      ],
      "stateMutability": "view",
      "type": "function"
    },
    {
      "stateMutability": "payable",
      "type": "receive"
    },
    {
      "inputs": [],
      "name": "getApprovers",
      "outputs": [
        {
          "internalType": "address[]",
          "name": "",
          "type": "address[]"
        }
      ],
      "stateMutability": "view",
      "type": "function"
    },
    {
      "inputs": [
        {
          "internalType": "uint256",
          "name": "amount",
          "type": "uint256"
        },
        {
          "internalType": "address payable",
          "name": "to",
          "type": "address"
        }
      ],
      "name": "createTransfer",
      "outputs": [],
      "stateMutability": "nonpayable",
      "type": "function"
    },
    {
      "inputs": [],
      "name": "getTransfer",
      "outputs": [
        {
          "components": [
            {
              "internalType": "uint256",
              "name": "id",
              "type": "uint256"
            },
            {
              "internalType": "uint256",
              "name": "amount",
              "type": "uint256"
            },
            {
              "internalType": "address payable",
              "name": "to",
              "type": "address"
            },
            {
              "internalType": "uint256",
              "name": "approvals",
              "type": "uint256"
            },
            {
              "internalType": "bool",
              "name": "transferStatus",
              "type": "bool"
            }
          ],
          "internalType": "struct Wallet.Transfer[]",
          "name": "",
          "type": "tuple[]"
        }
      ],
      "stateMutability": "view",
      "type": "function"
    },
    {
      "inputs": [
        {
          "internalType": "uint256",
          "name": "id",
          "type": "uint256"
        }
      ],
      "name": "approveTransfer",
      "outputs": [],
      "stateMutability": "nonpayable",
      "type": "function"
    }
  ],
  "bytecode": "0x60806040523480156200001157600080fd5b50604051620014bc380380620014bc833981810160405281019062000037919062000336565b81600090805190602001906200004f9291906200005f565b508060018190555050506200039c565b828054828255906000526020600020908101928215620000db579160200282015b82811115620000da5782518260006101000a81548173ffffffffffffffffffffffffffffffffffffffff021916908373ffffffffffffffffffffffffffffffffffffffff1602179055509160200191906001019062000080565b5b509050620000ea9190620000ee565b5090565b5b8082111562000109576000816000905550600101620000ef565b5090565b6000604051905090565b600080fd5b600080fd5b600080fd5b6000601f19601f8301169050919050565b7f4e487b7100000000000000000000000000000000000000000000000000000000600052604160045260246000fd5b620001718262000126565b810181811067ffffffffffffffff8211171562000193576200019262000137565b5b80604052505050565b6000620001a86200010d565b9050620001b6828262000166565b919050565b600067ffffffffffffffff821115620001d957620001d862000137565b5b602082029050602081019050919050565b600080fd5b600073ffffffffffffffffffffffffffffffffffffffff82169050919050565b60006200021c82620001ef565b9050919050565b6200022e816200020f565b81146200023a57600080fd5b50565b6000815190506200024e8162000223565b92915050565b60006200026b6200026584620001bb565b6200019c565b90508083825260208201905060208402830185811115620002915762000290620001ea565b5b835b81811015620002be5780620002a988826200023d565b84526020840193505060208101905062000293565b5050509392505050565b600082601f830112620002e057620002df62000121565b5b8151620002f284826020860162000254565b91505092915050565b6000819050919050565b6200031081620002fb565b81146200031c57600080fd5b50565b600081519050620003308162000305565b92915050565b6000806040838503121562000350576200034f62000117565b5b600083015167ffffffffffffffff8111156200037157620003706200011c565b5b6200037f85828601620002c8565b925050602062000392858286016200031f565b9150509250929050565b61111080620003ac6000396000f3fe60806040526004361061007f5760003560e01c80639377d7111161004e5780639377d71114610147578063b87141bf14610188578063cacca4a0146101b3578063d3650fb8146101dc57610086565b80631703a0181461008b5780634c12fa47146100b65780634ef187cb146100df5780636cb3e8ef1461011c57610086565b3661008657005b600080fd5b34801561009757600080fd5b506100a0610219565b6040516100ad9190610a41565b60405180910390f35b3480156100c257600080fd5b506100dd60048036038101906100d89190610aeb565b61021f565b005b3480156100eb57600080fd5b5061010660048036038101906101019190610b69565b6103ff565b6040516101139190610bc4565b60405180910390f35b34801561012857600080fd5b5061013161042e565b60405161013e9190610c9d565b60405180910390f35b34801561015357600080fd5b5061016e60048036038101906101699190610cbf565b6104bc565b60405161017f959493929190610cfb565b60405180910390f35b34801561019457600080fd5b5061019d61052f565b6040516101aa9190610e92565b60405180910390f35b3480156101bf57600080fd5b506101da60048036038101906101d59190610cbf565b61061d565b005b3480156101e857600080fd5b5061020360048036038101906101fe9190610cbf565b6109e9565b6040516102109190610ec3565b60405180910390f35b60015481565b6000805b6000805490508110156102ba573373ffffffffffffffffffffffffffffffffffffffff166000828154811061025b5761025a610ede565b5b9060005260206000200160009054906101000a900473ffffffffffffffffffffffffffffffffffffffff1673ffffffffffffffffffffffffffffffffffffffff1614156102a757600191505b80806102b290610f3c565b915050610223565b506001151581151514610302576040517f08c379a00000000000000000000000000000000000000000000000000000000081526004016102f990610fe2565b60405180910390fd5b60026040518060a0016040528060028054905081526020018581526020018473ffffffffffffffffffffffffffffffffffffffff16815260200160008152602001600015158152509080600181540180825580915050600190039060005260206000209060050201600090919091909150600082015181600001556020820151816001015560408201518160020160006101000a81548173ffffffffffffffffffffffffffffffffffffffff021916908373ffffffffffffffffffffffffffffffffffffffff1602179055506060820151816003015560808201518160040160006101000a81548160ff0219169083151502179055505050505050565b60036020528160005260406000206020528060005260406000206000915091509054906101000a900460ff1681565b606060008054806020026020016040519081016040528092919081815260200182805480156104b257602002820191906000526020600020905b8160009054906101000a900473ffffffffffffffffffffffffffffffffffffffff1673ffffffffffffffffffffffffffffffffffffffff1681526020019060010190808311610468575b5050505050905090565b600281815481106104cc57600080fd5b90600052602060002090600502016000915090508060000154908060010154908060020160009054906101000a900473ffffffffffffffffffffffffffffffffffffffff16908060030154908060040160009054906101000a900460ff16905085565b60606002805480602002602001604051908101604052809291908181526020016000905b8282101561061457838290600052602060002090600502016040518060a001604052908160008201548152602001600182015481526020016002820160009054906101000a900473ffffffffffffffffffffffffffffffffffffffff1673ffffffffffffffffffffffffffffffffffffffff1673ffffffffffffffffffffffffffffffffffffffff168152602001600382015481526020016004820160009054906101000a900460ff16151515158152505081526020019060010190610553565b50505050905090565b6000805b6000805490508110156106b8573373ffffffffffffffffffffffffffffffffffffffff166000828154811061065957610658610ede565b5b9060005260206000200160009054906101000a900473ffffffffffffffffffffffffffffffffffffffff1673ffffffffffffffffffffffffffffffffffffffff1614156106a557600191505b80806106b090610f3c565b915050610621565b506001151581151514610700576040517f08c379a00000000000000000000000000000000000000000000000000000000081526004016106f790610fe2565b60405180910390fd5b600015156002838154811061071857610717610ede565b5b906000526020600020906005020160040160009054906101000a900460ff16151514610779576040517f08c379a00000000000000000000000000000000000000000000000000000000081526004016107709061104e565b60405180910390fd5b60001515600360003373ffffffffffffffffffffffffffffffffffffffff1673ffffffffffffffffffffffffffffffffffffffff168152602001908152602001600020600084815260200190815260200160002060009054906101000a900460ff1615151461081d576040517f08c379a0000000000000000000000000000000000000000000000000000000008152600401610814906110ba565b60405180910390fd5b6001600360003373ffffffffffffffffffffffffffffffffffffffff1673ffffffffffffffffffffffffffffffffffffffff168152602001908152602001600020600084815260200190815260200160002060006101000a81548160ff0219169083151502179055506002828154811061089a57610899610ede565b5b906000526020600020906005020160030160008154809291906108bc90610f3c565b9190505550600154600283815481106108d8576108d7610ede565b5b906000526020600020906005020160030154106109e55760016002838154811061090557610904610ede565b5b906000526020600020906005020160040160006101000a81548160ff02191690831515021790555060006002838154811061094357610942610ede565b5b906000526020600020906005020160020160009054906101000a900473ffffffffffffffffffffffffffffffffffffffff1690508073ffffffffffffffffffffffffffffffffffffffff166108fc600285815481106109a5576109a4610ede565b5b9060005260206000209060050201600101549081150290604051600060405180830381858888f193505050501580156109e2573d6000803e3d6000fd5b50505b5050565b600081815481106109f957600080fd5b906000526020600020016000915054906101000a900473ffffffffffffffffffffffffffffffffffffffff1681565b6000819050919050565b610a3b81610a28565b82525050565b6000602082019050610a566000830184610a32565b92915050565b600080fd5b610a6a81610a28565b8114610a7557600080fd5b50565b600081359050610a8781610a61565b92915050565b600073ffffffffffffffffffffffffffffffffffffffff82169050919050565b6000610ab882610a8d565b9050919050565b610ac881610aad565b8114610ad357600080fd5b50565b600081359050610ae581610abf565b92915050565b60008060408385031215610b0257610b01610a5c565b5b6000610b1085828601610a78565b9250506020610b2185828601610ad6565b9150509250929050565b6000610b3682610a8d565b9050919050565b610b4681610b2b565b8114610b5157600080fd5b50565b600081359050610b6381610b3d565b92915050565b60008060408385031215610b8057610b7f610a5c565b5b6000610b8e85828601610b54565b9250506020610b9f85828601610a78565b9150509250929050565b60008115159050919050565b610bbe81610ba9565b82525050565b6000602082019050610bd96000830184610bb5565b92915050565b600081519050919050565b600082825260208201905092915050565b6000819050602082019050919050565b610c1481610b2b565b82525050565b6000610c268383610c0b565b60208301905092915050565b6000602082019050919050565b6000610c4a82610bdf565b610c548185610bea565b9350610c5f83610bfb565b8060005b83811015610c90578151610c778882610c1a565b9750610c8283610c32565b925050600181019050610c63565b5085935050505092915050565b60006020820190508181036000830152610cb78184610c3f565b905092915050565b600060208284031215610cd557610cd4610a5c565b5b6000610ce384828501610a78565b91505092915050565b610cf581610aad565b82525050565b600060a082019050610d106000830188610a32565b610d1d6020830187610a32565b610d2a6040830186610cec565b610d376060830185610a32565b610d446080830184610bb5565b9695505050505050565b600081519050919050565b600082825260208201905092915050565b6000819050602082019050919050565b610d8381610a28565b82525050565b610d9281610aad565b82525050565b610da181610ba9565b82525050565b60a082016000820151610dbd6000850182610d7a565b506020820151610dd06020850182610d7a565b506040820151610de36040850182610d89565b506060820151610df66060850182610d7a565b506080820151610e096080850182610d98565b50505050565b6000610e1b8383610da7565b60a08301905092915050565b6000602082019050919050565b6000610e3f82610d4e565b610e498185610d59565b9350610e5483610d6a565b8060005b83811015610e85578151610e6c8882610e0f565b9750610e7783610e27565b925050600181019050610e58565b5085935050505092915050565b60006020820190508181036000830152610eac8184610e34565b905092915050565b610ebd81610b2b565b82525050565b6000602082019050610ed86000830184610eb4565b92915050565b7f4e487b7100000000000000000000000000000000000000000000000000000000600052603260045260246000fd5b7f4e487b7100000000000000000000000000000000000000000000000000000000600052601160045260246000fd5b6000610f4782610a28565b91507fffffffffffffffffffffffffffffffffffffffffffffffffffffffffffffffff821415610f7a57610f79610f0d565b5b600182019050919050565b600082825260208201905092915050565b7f6f6e6c7920617070726f76657220616c6c6f7765640000000000000000000000600082015250565b6000610fcc601583610f85565b9150610fd782610f96565b602082019050919050565b60006020820190508181036000830152610ffb81610fbf565b9050919050565b7f5472616e736665722068617320616c7265616479206265656e206d6164650000600082015250565b6000611038601e83610f85565b915061104382611002565b602082019050919050565b600060208201905081810360008301526110678161102b565b9050919050565b7f5472616e7366657220616c726561647920417070726f76656420210000000000600082015250565b60006110a4601b83610f85565b91506110af8261106e565b602082019050919050565b600060208201905081810360008301526110d381611097565b905091905056fea264697066735822122063741c4b30fc911ae81f63df2946be5b94c29d3e5057dbd9deef4bf6e7230c5c64736f6c634300080a0033",
  "immutableReferences": {},
  "source": "// SPDX-License-Identifier: MIT\n\npragma solidity ^0.8.0;\n\ncontract Wallet {\n    address[] public approvers;\n    uint256 public quorum;\n\n    //Transfer is a eth transfer request from one account to another\n    struct Transfer {\n        uint256 id;\n        uint256 amount;\n        address payable to;\n        uint256 approvals;\n        bool transferStatus;\n    }\n\n    Transfer[] public transfers;\n\n    mapping(address => mapping(uint256 => bool)) public transferApprovals;\n\n    //modifer to check if the calling address is an approver\n    modifier onlyApprover() {\n        bool allowed = false;\n        for (uint256 i = 0; i < approvers.length; i++) {\n            if (approvers[i] == msg.sender) {\n                allowed = true;\n            }\n        }\n\n        require(allowed == true, \"only approver allowed\");\n        _;\n    }\n\n    constructor(address[] memory _approvers, uint256 _quorum) {\n        approvers = _approvers;\n        quorum = _quorum;\n    }\n\n    function getApprovers() external view returns (address[] memory) {\n        return approvers;\n    }\n\n    function createTransfer(uint256 amount, address payable to)\n        external\n        onlyApprover\n    {\n        transfers.push(Transfer(transfers.length, amount, to, 0, false));\n    }\n\n    function getTransfer() external view returns (Transfer[] memory) {\n        return transfers;\n    }\n\n    function approveTransfer(uint256 id) external onlyApprover {\n        //Check if this transfer has already been made\n        require(\n            transfers[id].transferStatus == false,\n            \"Transfer has already been made\"\n        );\n        //check if approver has already approved the request\n        require(\n            transferApprovals[msg.sender][id] == false,\n            \"Transfer already Approved !\"\n        );\n\n        transferApprovals[msg.sender][id] = true;\n        transfers[id].approvals++; //Transation approved\n\n        //check if number of approvals reached quorum\n        if (transfers[id].approvals >= quorum) {\n            transfers[id].transferStatus = true;\n            address payable to = transfers[id].to;\n            to.transfer(transfers[id].amount);\n        }\n    }\n\n    //smart contract to receive ethers\n    receive() external payable {}\n}\n",
  "sourcePath": "/media/eldiablo/P1/codebase/solodity/projects/02-MultiSig-wallet/contracts/MultiSigWallet.sol",
  "compiler": {
    "name": "solc",
    "version": "0.8.10+commit.fc410830.Emscripten.clang"
  },
  "schemaVersion": "3.4.3",
  "updatedAt": "2022-04-16T08:48:03.121Z",
  "devdoc": {
    "kind": "dev",
    "methods": {},
    "version": 1
  },
  "userdoc": {
    "kind": "user",
    "methods": {},
    "version": 1
  }
}